{
  "contractName": "DoctorAppointment",
  "abi": [
    {
      "inputs": [],
      "payable": false,
      "stateMutability": "nonpayable",
      "type": "constructor"
    },
    {
      "anonymous": false,
      "inputs": [
        {
          "indexed": true,
          "internalType": "uint256",
          "name": "doctorId",
          "type": "uint256"
        },
        {
          "indexed": true,
          "internalType": "uint256",
          "name": "patientId",
          "type": "uint256"
        },
        {
          "indexed": false,
          "internalType": "string",
          "name": "timestamp",
          "type": "string"
        }
      ],
      "name": "AppointmentBooked",
      "type": "event"
    },
    {
      "anonymous": false,
      "inputs": [
        {
          "indexed": false,
          "internalType": "uint256",
          "name": "id",
          "type": "uint256"
        },
        {
          "indexed": false,
          "internalType": "string",
          "name": "name",
          "type": "string"
        },
        {
          "indexed": false,
          "internalType": "string",
          "name": "speciality",
          "type": "string"
        }
      ],
      "name": "DoctorRegistered",
      "type": "event"
    },
    {
      "anonymous": false,
      "inputs": [
        {
          "indexed": false,
          "internalType": "uint256",
          "name": "id",
          "type": "uint256"
        },
        {
          "indexed": false,
          "internalType": "string",
          "name": "name",
          "type": "string"
        }
      ],
      "name": "PatientRergistered",
      "type": "event"
    },
    {
      "constant": true,
      "inputs": [],
      "name": "admin",
      "outputs": [
        {
          "internalType": "address",
          "name": "",
          "type": "address"
        }
      ],
      "payable": false,
      "stateMutability": "view",
      "type": "function"
    },
    {
      "constant": true,
      "inputs": [
        {
          "internalType": "uint256",
          "name": "",
          "type": "uint256"
        }
      ],
      "name": "doctors",
      "outputs": [
        {
          "internalType": "uint256",
          "name": "id",
          "type": "uint256"
        },
        {
          "internalType": "string",
          "name": "name",
          "type": "string"
        },
        {
          "internalType": "string",
          "name": "specialty",
          "type": "string"
        },
        {
          "internalType": "address",
          "name": "walletAddress",
          "type": "address"
        }
      ],
      "payable": false,
      "stateMutability": "view",
      "type": "function"
    },
    {
      "constant": true,
      "inputs": [
        {
          "internalType": "uint256",
          "name": "",
          "type": "uint256"
        }
      ],
      "name": "patients",
      "outputs": [
        {
          "internalType": "uint256",
          "name": "id",
          "type": "uint256"
        },
        {
          "internalType": "string",
          "name": "name",
          "type": "string"
        },
        {
          "internalType": "address",
          "name": "walletAddress",
          "type": "address"
        }
      ],
      "payable": false,
      "stateMutability": "view",
      "type": "function"
    },
    {
      "constant": true,
      "inputs": [
        {
          "internalType": "string",
          "name": "_walletAddress",
          "type": "string"
        }
      ],
      "name": "getDoctorIdByWallet",
      "outputs": [
        {
          "internalType": "uint256",
          "name": "",
          "type": "uint256"
        }
      ],
      "payable": false,
      "stateMutability": "view",
      "type": "function"
    },
    {
      "constant": false,
      "inputs": [
        {
          "internalType": "string",
          "name": "_name",
          "type": "string"
        },
        {
          "internalType": "string",
          "name": "_specialty",
          "type": "string"
        },
        {
          "internalType": "address",
          "name": "account",
          "type": "address"
        }
      ],
      "name": "registerDoctor",
      "outputs": [],
      "payable": false,
      "stateMutability": "nonpayable",
      "type": "function"
    },
    {
      "constant": false,
      "inputs": [
        {
          "internalType": "string",
          "name": "_name",
          "type": "string"
        }
      ],
      "name": "registerPatient",
      "outputs": [],
      "payable": false,
      "stateMutability": "nonpayable",
      "type": "function"
    },
    {
      "constant": true,
      "inputs": [
        {
          "internalType": "address",
          "name": "_walletAddress",
          "type": "address"
        }
      ],
      "name": "isPatient",
      "outputs": [
        {
          "internalType": "bool",
          "name": "",
          "type": "bool"
        }
      ],
      "payable": false,
      "stateMutability": "view",
      "type": "function"
    },
    {
      "constant": false,
      "inputs": [
        {
          "internalType": "string",
          "name": "docAddress",
          "type": "string"
        },
        {
          "internalType": "string",
          "name": "_timestamp",
          "type": "string"
        }
      ],
      "name": "bookAppointment",
      "outputs": [],
      "payable": false,
      "stateMutability": "nonpayable",
      "type": "function"
    },
    {
      "constant": true,
      "inputs": [],
      "name": "getDoctorsCount",
      "outputs": [
        {
          "internalType": "uint256",
          "name": "",
          "type": "uint256"
        }
      ],
      "payable": false,
      "stateMutability": "view",
      "type": "function"
    },
    {
      "constant": true,
      "inputs": [
        {
          "internalType": "uint256",
          "name": "_id",
          "type": "uint256"
        }
      ],
      "name": "getDoctor",
      "outputs": [
        {
          "internalType": "uint256",
          "name": "",
          "type": "uint256"
        },
        {
          "internalType": "string",
          "name": "",
          "type": "string"
        },
        {
          "internalType": "string",
          "name": "",
          "type": "string"
        },
        {
          "internalType": "address",
          "name": "",
          "type": "address"
        }
      ],
      "payable": false,
      "stateMutability": "view",
      "type": "function"
    }
  ],
  "bytecode": "0x608060405234801561001057600080fd5b50336000806101000a81548173ffffffffffffffffffffffffffffffffffffffff021916908373ffffffffffffffffffffffffffffffffffffffff160217905550611982806100606000396000f3fe608060405234801561001057600080fd5b506004361061009e5760003560e01c8063869c9eaf11610066578063869c9eaf1461061f5780638f9c79ed146106da57806393119a8314610736578063f851a44014610817578063fbc990a8146108615761009e565b80631acbcf6a146100a357806331357af2146101f557806369b0a72d146102135780636efb1b841461036057806370549214146104ad575b600080fd5b6101f3600480360360408110156100b957600080fd5b81019080803590602001906401000000008111156100d657600080fd5b8201836020820111156100e857600080fd5b8035906020019184600183028401116401000000008311171561010a57600080fd5b91908080601f016020809104026020016040519081016040528093929190818152602001838380828437600081840152601f19601f8201169050808301925050505050505091929192908035906020019064010000000081111561016d57600080fd5b82018360208201111561017f57600080fd5b803590602001918460018302840111640100000000831117156101a157600080fd5b91908080601f016020809104026020016040519081016040528093929190818152602001838380828437600081840152601f19601f820116905080830192505050505050509192919290505050610930565b005b6101fd610c46565b6040518082815260200191505060405180910390f35b61023f6004803603602081101561022957600080fd5b8101908080359060200190929190505050610c53565b6040518085815260200180602001806020018473ffffffffffffffffffffffffffffffffffffffff1673ffffffffffffffffffffffffffffffffffffffff168152602001838103835286818151815260200191508051906020019080838360005b838110156102bb5780820151818401526020810190506102a0565b50505050905090810190601f1680156102e85780820380516001836020036101000a031916815260200191505b50838103825285818151815260200191508051906020019080838360005b83811015610321578082015181840152602081019050610306565b50505050905090810190601f16801561034e5780820380516001836020036101000a031916815260200191505b50965050505050505060405180910390f35b61038c6004803603602081101561037657600080fd5b8101908080359060200190929190505050610ed2565b6040518085815260200180602001806020018473ffffffffffffffffffffffffffffffffffffffff1673ffffffffffffffffffffffffffffffffffffffff168152602001838103835286818151815260200191508051906020019080838360005b838110156104085780820151818401526020810190506103ed565b50505050905090810190601f1680156104355780820380516001836020036101000a031916815260200191505b50838103825285818151815260200191508051906020019080838360005b8381101561046e578082015181840152602081019050610453565b50505050905090810190601f16801561049b5780820380516001836020036101000a031916815260200191505b50965050505050505060405180910390f35b61061d600480360360608110156104c357600080fd5b81019080803590602001906401000000008111156104e057600080fd5b8201836020820111156104f257600080fd5b8035906020019184600183028401116401000000008311171561051457600080fd5b91908080601f016020809104026020016040519081016040528093929190818152602001838380828437600081840152601f19601f8201169050808301925050505050505091929192908035906020019064010000000081111561057757600080fd5b82018360208201111561058957600080fd5b803590602001918460018302840111640100000000831117156105ab57600080fd5b91908080601f016020809104026020016040519081016040528093929190818152602001838380828437600081840152601f19601f820116905080830192505050505050509192919290803573ffffffffffffffffffffffffffffffffffffffff16906020019092919050505061105f565b005b6106d86004803603602081101561063557600080fd5b810190808035906020019064010000000081111561065257600080fd5b82018360208201111561066457600080fd5b8035906020019184600183028401116401000000008311171561068657600080fd5b91908080601f016020809104026020016040519081016040528093929190818152602001838380828437600081840152601f19601f820116905080830192505050505050509192919290505050611391565b005b61071c600480360360208110156106f057600080fd5b81019080803573ffffffffffffffffffffffffffffffffffffffff16906020019092919050505061158d565b604051808215151515815260200191505060405180910390f35b6107626004803603602081101561074c57600080fd5b8101908080359060200190929190505050611636565b60405180848152602001806020018373ffffffffffffffffffffffffffffffffffffffff1673ffffffffffffffffffffffffffffffffffffffff168152602001828103825284818151815260200191508051906020019080838360005b838110156107da5780820151818401526020810190506107bf565b50505050905090810190601f1680156108075780820380516001836020036101000a031916815260200191505b5094505050505060405180910390f35b61081f611725565b604051808273ffffffffffffffffffffffffffffffffffffffff1673ffffffffffffffffffffffffffffffffffffffff16815260200191505060405180910390f35b61091a6004803603602081101561087757600080fd5b810190808035906020019064010000000081111561089457600080fd5b8201836020820111156108a657600080fd5b803590602001918460018302840111640100000000831117156108c857600080fd5b91908080601f016020809104026020016040519081016040528093929190818152602001838380828437600081840152601f19601f82011690508083019250505050505050919291929050505061174a565b6040518082815260200191505060405180910390f35b60006002836040518082805190602001908083835b602083106109685780518252602082019150602081019050602083039250610945565b6001836020036101000a038019825116818451168082178552505050505050905001915050908152602001604051809103902054905060008114156109f8576040517f08c379a000000000000000000000000000000000000000000000000000000000815260040180806020018281038252602f81526020018061191f602f913960400191505060405180910390fd5b60018181548110610a0557fe5b9060005260206000209060050201600401826040518082805190602001908083835b60208310610a4a5780518252602082019150602081019050602083039250610a27565b6001836020036101000a038019825116818451168082178552505050505050905001915050908152602001604051809103902060009054906101000a900460ff16610afd576040517f08c379a00000000000000000000000000000000000000000000000000000000081526004018080602001828103825260128152602001807f536c6f74206e6f7420617661696c61626c65000000000000000000000000000081525060200191505060405180910390fd5b600160038054905003817fd10c5b062847dcf55cce7016fa8423ef327c31d0a27952d1049d12a6fa42baf2846040518080602001828103825283818151815260200191508051906020019080838360005b83811015610b69578082015181840152602081019050610b4e565b50505050905090810190601f168015610b965780820380516001836020036101000a031916815260200191505b509250505060405180910390a3600060018281548110610bb257fe5b9060005260206000209060050201600401836040518082805190602001908083835b60208310610bf75780518252602082019150602081019050602083039250610bd4565b6001836020036101000a038019825116818451168082178552505050505050905001915050908152602001604051809103902060006101000a81548160ff021916908315150217905550505050565b6000600180549050905090565b600060608060006001805490508510610cd4576040517f08c379a00000000000000000000000000000000000000000000000000000000081526004018080602001828103825260158152602001807f446f63746f7220646f6573206e6f74206578697374000000000000000000000081525060200191505060405180910390fd5b610cdc61181a565b60018681548110610ce957fe5b906000526020600020906005020160405180608001604052908160008201548152602001600182018054600181600116156101000203166002900480601f016020809104026020016040519081016040528092919081815260200182805460018160011615610100020316600290048015610da55780601f10610d7a57610100808354040283529160200191610da5565b820191906000526020600020905b815481529060010190602001808311610d8857829003601f168201915b50505050508152602001600282018054600181600116156101000203166002900480601f016020809104026020016040519081016040528092919081815260200182805460018160011615610100020316600290048015610e475780601f10610e1c57610100808354040283529160200191610e47565b820191906000526020600020905b815481529060010190602001808311610e2a57829003601f168201915b505050505081526020016003820160009054906101000a900473ffffffffffffffffffffffffffffffffffffffff1673ffffffffffffffffffffffffffffffffffffffff1673ffffffffffffffffffffffffffffffffffffffff1681525050905080600001518160200151826040015183606001518292508191509450945094509450509193509193565b60018181548110610edf57fe5b9060005260206000209060050201600091509050806000015490806001018054600181600116156101000203166002900480601f016020809104026020016040519081016040528092919081815260200182805460018160011615610100020316600290048015610f915780601f10610f6657610100808354040283529160200191610f91565b820191906000526020600020905b815481529060010190602001808311610f7457829003601f168201915b505050505090806002018054600181600116156101000203166002900480601f01602080910402602001604051908101604052809291908181526020018280546001816001161561010002031660029004801561102f5780601f106110045761010080835404028352916020019161102f565b820191906000526020600020905b81548152906001019060200180831161101257829003601f168201915b5050505050908060030160009054906101000a900473ffffffffffffffffffffffffffffffffffffffff16905084565b6000809054906101000a900473ffffffffffffffffffffffffffffffffffffffff1673ffffffffffffffffffffffffffffffffffffffff163373ffffffffffffffffffffffffffffffffffffffff1614611104576040517f08c379a00000000000000000000000000000000000000000000000000000000081526004018080602001828103825260218152602001806118fe6021913960400191505060405180910390fd5b6001604051806080016040528060018054905081526020018581526020018481526020018373ffffffffffffffffffffffffffffffffffffffff1681525090806001815401808255809150509060018203906000526020600020906005020160009091929091909150600082015181600001556020820151816001019080519060200190611193929190611858565b5060408201518160020190805190602001906111b0929190611858565b5060608201518160030160006101000a81548173ffffffffffffffffffffffffffffffffffffffff021916908373ffffffffffffffffffffffffffffffffffffffff160217905550505050600180549050600261120c836117bd565b6040518082805190602001908083835b6020831061123f578051825260208201915060208101905060208303925061121c565b6001836020036101000a0380198251168184511680821785525050505050509050019150509081526020016040518091039020819055507f04779804869ba1b1a5c924f411a8e435b7d49cd7fd2881f31af835f35e70d4776001805490508484604051808481526020018060200180602001838103835285818151815260200191508051906020019080838360005b838110156112e95780820151818401526020810190506112ce565b50505050905090810190601f1680156113165780820380516001836020036101000a031916815260200191505b50838103825284818151815260200191508051906020019080838360005b8381101561134f578082015181840152602081019050611334565b50505050905090810190601f16801561137c5780820380516001836020036101000a031916815260200191505b509550505050505060405180910390a1505050565b61139a3361158d565b1561140d576040517f08c379a000000000000000000000000000000000000000000000000000000000815260040180806020018281038252601f8152602001807f416c7265616479207265676973746572656420617320612070617469656e740081525060200191505060405180910390fd5b6003604051806060016040528060038054905081526020018381526020013373ffffffffffffffffffffffffffffffffffffffff1681525090806001815401808255809150509060018203906000526020600020906003020160009091929091909150600082015181600001556020820151816001019080519060200190611496929190611858565b5060408201518160020160006101000a81548173ffffffffffffffffffffffffffffffffffffffff021916908373ffffffffffffffffffffffffffffffffffffffff1602179055505050507f620c8526ade4adfacde38a9c1a1f3d245c3332643fe3bd43ed629a82864db769600380549050826040518083815260200180602001828103825283818151815260200191508051906020019080838360005b8381101561154f578082015181840152602081019050611534565b50505050905090810190601f16801561157c5780820380516001836020036101000a031916815260200191505b50935050505060405180910390a150565b600080600090505b60038054905081101561162b578273ffffffffffffffffffffffffffffffffffffffff16600382815481106115c657fe5b906000526020600020906003020160020160009054906101000a900473ffffffffffffffffffffffffffffffffffffffff1673ffffffffffffffffffffffffffffffffffffffff16141561161e576001915050611631565b8080600101915050611595565b50600090505b919050565b6003818154811061164357fe5b9060005260206000209060030201600091509050806000015490806001018054600181600116156101000203166002900480601f0160208091040260200160405190810160405280929190818152602001828054600181600116156101000203166002900480156116f55780601f106116ca576101008083540402835291602001916116f5565b820191906000526020600020905b8154815290600101906020018083116116d857829003601f168201915b5050505050908060020160009054906101000a900473ffffffffffffffffffffffffffffffffffffffff16905083565b6000809054906101000a900473ffffffffffffffffffffffffffffffffffffffff1681565b60006002826040518082805190602001908083835b60208310611782578051825260208201915060208101905060208303925061175f565b6001836020036101000a0380198251168184511680821785525050505050509050019150509081526020016040518091039020549050919050565b60608082604051602001808273ffffffffffffffffffffffffffffffffffffffff1673ffffffffffffffffffffffffffffffffffffffff1660601b8152601401915050604051602081830303815290604052905080915050919050565b6040518060800160405280600081526020016060815260200160608152602001600073ffffffffffffffffffffffffffffffffffffffff1681525090565b828054600181600116156101000203166002900490600052602060002090601f016020900481019282601f1061189957805160ff19168380011785556118c7565b828001600101855582156118c7579182015b828111156118c65782518255916020019190600101906118ab565b5b5090506118d491906118d8565b5090565b6118fa91905b808211156118f65760008160009055506001016118de565b5090565b9056fe4f6e6c792061646d696e2063616e2063616c6c20746869732066756e6374696f6e4e6f20646f63746f7220657869737473206174207468652070726f76696465642077616c6c65742061646472657373a265627a7a72315820c4b135755ccd481d0522d2ee5de5d16117fdd2f360db5fc246c9777d61c7776564736f6c63430005100032",
  "source": "// SPDX-License-Identifier: MIT\r\npragma solidity ^0.5.0;\r\n\r\ncontract DoctorAppointment {\r\n    address public admin; // Address of the admin\r\n\r\n    // Structure to represent a doctor\r\n    struct Doctor {\r\n        uint id;\r\n        string name;\r\n        string specialty;\r\n        address walletAddress; // Ethereum address of the doctor\r\n        mapping(string => bool) availability; // Mapping for available slots\r\n    }\r\n\r\n    // Structure to represent a patient\r\n    struct Patient {\r\n        uint id;\r\n        string name;\r\n        address walletAddress; // Ethereum address of the patient\r\n    }\r\n\r\n    // Array to store doctors\r\n    Doctor[] public doctors;\r\n\r\n    mapping(string => uint) doctorIdsByAddress;\r\n\r\n    // Utility: Function to get doctor ID by wallet address\r\n    function getDoctorIdByWallet(string memory _walletAddress) public view returns (uint) {\r\n        return doctorIdsByAddress[_walletAddress];\r\n    }\r\n\r\n    // Convert address to string\r\n    function addressToString(address _address) internal pure returns (string memory) {\r\n        bytes memory addressBytes = abi.encodePacked(_address);\r\n        return string(addressBytes);\r\n    }\r\n\r\n    // Array to store patients\r\n    Patient[] public patients;\r\n\r\n    // Event for appointment booking\r\n    event AppointmentBooked(uint indexed doctorId, uint indexed patientId, string timestamp);\r\n    event DoctorRegistered(uint id, string name, string speciality);\r\n    event PatientRergistered(uint id, string name);\r\n\r\n    // Modifier to restrict access to the admin\r\n    modifier onlyAdmin() {\r\n        require(msg.sender == admin, \"Only admin can call this function\");\r\n        _;\r\n    }\r\n\r\n    // Constructor to set the admin\r\n    constructor() public{\r\n        admin = msg.sender;\r\n    }\r\n\r\n    // Function to register a new doctor (only admin)\r\n    function registerDoctor(string memory _name, string memory _specialty, address account) public onlyAdmin {\r\n        // Add the doctor to the array of doctors\r\n        doctors.push(Doctor(doctors.length, _name, _specialty, account));\r\n        doctorIdsByAddress[addressToString(account)] = doctors.length;\r\n        emit DoctorRegistered(doctors.length, _name, _specialty);\r\n    }\r\n\r\n    // Function to register a new patient\r\n    function registerPatient(string memory _name) public {\r\n        // Ensure the sender is not already registered as a patient\r\n        require(!isPatient(msg.sender), \"Already registered as a patient\");\r\n\r\n        // Add the patient to the array of patients\r\n        patients.push(Patient(patients.length, _name, msg.sender));\r\n        emit PatientRergistered(patients.length, _name);\r\n    }\r\n\r\n    // Function to check if an address is registered as a patient\r\n    function isPatient(address _walletAddress) public view returns (bool) {\r\n        for (uint i = 0; i < patients.length; i++) {\r\n            if (patients[i].walletAddress == _walletAddress) {\r\n                return true;\r\n            }\r\n        }\r\n        return false;\r\n    }\r\n\r\n    // // Function for doctors to set their availability\r\n    // function setAvailability(uint _doctorId, uint _slot, bool _available) public {\r\n    //     // Ensure the doctor exists\r\n    //     require(_doctorId < doctors.length, \"Doctor does not exist\");\r\n\r\n    //     // Update the availability for the specified slot\r\n    //     doctors[_doctorId].availability[_slot] = _available;\r\n    // }\r\n\r\n    // Function for patients to book an appointment\r\n    function bookAppointment(string memory docAddress, string memory _timestamp) public {\r\n        // Ensure the doctor exists\r\n        uint _doctorId = doctorIdsByAddress[docAddress];\r\n        require(_doctorId != 0, \"No doctor exists at the provided wallet address\");\r\n        \r\n        // Ensure the slot is available\r\n        require(doctors[_doctorId].availability[_timestamp], \"Slot not available\");\r\n\r\n        // Emit an event indicating the booking\r\n        emit AppointmentBooked(_doctorId, patients.length - 1, _timestamp);\r\n\r\n        // Mark the slot as unavailable after booking\r\n        doctors[_doctorId].availability[_timestamp] = false;\r\n    }\r\n\r\n    // List all registered Doctors ----------------------\r\n    // Function to get the total number of doctors\r\n    function getDoctorsCount() public view returns (uint) {\r\n        return doctors.length;\r\n    }\r\n\r\n    // Function to get doctor details by ID\r\n    function getDoctor(uint _id) public view returns (uint, string memory, string memory, address) {\r\n        require(_id < doctors.length, \"Doctor does not exist\");\r\n        Doctor memory doctor = doctors[_id];\r\n        return (doctor.id, doctor.name, doctor.specialty, doctor.walletAddress);\r\n    }\r\n}\r\n",
  "sourcePath": "E:\\BlockChainProject\\contracts\\DoctorAppointment.sol",
  "compiler": {
    "name": "solc",
    "version": "0.5.16+commit.9c3226ce.Emscripten.clang"
  },
  "schemaVersion": "3.4.16",
  "updatedAt": "2024-05-06T19:09:00.163Z",
  "networkType": "ethereum",
  "devdoc": {
    "methods": {}
  },
  "userdoc": {
    "methods": {}
  }
}