{
  "contractName": "DoctorAppointment",
  "abi": [
    {
      "inputs": [],
      "payable": false,
      "stateMutability": "nonpayable",
      "type": "constructor"
    },
    {
      "anonymous": false,
      "inputs": [
        {
          "indexed": true,
          "internalType": "uint256",
          "name": "doctorId",
          "type": "uint256"
        },
        {
          "indexed": false,
          "internalType": "string",
          "name": "timestamp",
          "type": "string"
        }
      ],
      "name": "AppointmentBooked",
      "type": "event"
    },
    {
      "anonymous": false,
      "inputs": [
        {
          "indexed": false,
          "internalType": "uint256",
          "name": "id",
          "type": "uint256"
        },
        {
          "indexed": false,
          "internalType": "string",
          "name": "name",
          "type": "string"
        },
        {
          "indexed": false,
          "internalType": "string",
          "name": "speciality",
          "type": "string"
        }
      ],
      "name": "DoctorRegistered",
      "type": "event"
    },
    {
      "anonymous": false,
      "inputs": [
        {
          "indexed": false,
          "internalType": "uint256",
          "name": "id",
          "type": "uint256"
        },
        {
          "indexed": false,
          "internalType": "string",
          "name": "name",
          "type": "string"
        }
      ],
      "name": "PatientRergistered",
      "type": "event"
    },
    {
      "constant": true,
      "inputs": [],
      "name": "admin",
      "outputs": [
        {
          "internalType": "address",
          "name": "",
          "type": "address"
        }
      ],
      "payable": false,
      "stateMutability": "view",
      "type": "function"
    },
    {
      "constant": true,
      "inputs": [
        {
          "internalType": "uint256",
          "name": "",
          "type": "uint256"
        }
      ],
      "name": "doctors",
      "outputs": [
        {
          "internalType": "string",
          "name": "name",
          "type": "string"
        },
        {
          "internalType": "string",
          "name": "specialty",
          "type": "string"
        },
        {
          "internalType": "address",
          "name": "walletAddress",
          "type": "address"
        }
      ],
      "payable": false,
      "stateMutability": "view",
      "type": "function"
    },
    {
      "constant": true,
      "inputs": [
        {
          "internalType": "uint256",
          "name": "",
          "type": "uint256"
        }
      ],
      "name": "patients",
      "outputs": [
        {
          "internalType": "string",
          "name": "name",
          "type": "string"
        },
        {
          "internalType": "address",
          "name": "walletAddress",
          "type": "address"
        }
      ],
      "payable": false,
      "stateMutability": "view",
      "type": "function"
    },
    {
      "constant": false,
      "inputs": [
        {
          "internalType": "uint256",
          "name": "id",
          "type": "uint256"
        },
        {
          "internalType": "string",
          "name": "_name",
          "type": "string"
        },
        {
          "internalType": "string",
          "name": "_specialty",
          "type": "string"
        },
        {
          "internalType": "address",
          "name": "account",
          "type": "address"
        }
      ],
      "name": "registerDoctor",
      "outputs": [],
      "payable": false,
      "stateMutability": "nonpayable",
      "type": "function"
    },
    {
      "constant": false,
      "inputs": [
        {
          "internalType": "uint256",
          "name": "id",
          "type": "uint256"
        },
        {
          "internalType": "string",
          "name": "_name",
          "type": "string"
        }
      ],
      "name": "registerPatient",
      "outputs": [],
      "payable": false,
      "stateMutability": "nonpayable",
      "type": "function"
    },
    {
      "constant": true,
      "inputs": [],
      "name": "isPatient",
      "outputs": [
        {
          "internalType": "bool",
          "name": "",
          "type": "bool"
        }
      ],
      "payable": false,
      "stateMutability": "view",
      "type": "function"
    },
    {
      "constant": false,
      "inputs": [
        {
          "internalType": "uint256",
          "name": "docId",
          "type": "uint256"
        },
        {
          "internalType": "string",
          "name": "_timestamp",
          "type": "string"
        }
      ],
      "name": "bookAppointment",
      "outputs": [],
      "payable": false,
      "stateMutability": "nonpayable",
      "type": "function"
    },
    {
      "constant": true,
      "inputs": [],
      "name": "getDoctorsCount",
      "outputs": [
        {
          "internalType": "uint256",
          "name": "",
          "type": "uint256"
        }
      ],
      "payable": false,
      "stateMutability": "view",
      "type": "function"
    }
  ],
  "bytecode": "0x608060405234801561001057600080fd5b50336000806101000a81548173ffffffffffffffffffffffffffffffffffffffff021916908373ffffffffffffffffffffffffffffffffffffffff160217905550611165806100606000396000f3fe608060405234801561001057600080fd5b50600436106100885760003560e01c80636efb1b841161005b5780636efb1b841461030e57806393119a83146104545780639f6aaaf91461052e578063f851a440146105f357610088565b80631c3bd0e91461008d57806331357af2146102095780635962b430146102275780636e4abaae14610249575b600080fd5b610207600480360360808110156100a357600080fd5b8101908080359060200190929190803590602001906401000000008111156100ca57600080fd5b8201836020820111156100dc57600080fd5b803590602001918460018302840111640100000000831117156100fe57600080fd5b91908080601f016020809104026020016040519081016040528093929190818152602001838380828437600081840152601f19601f8201169050808301925050505050505091929192908035906020019064010000000081111561016157600080fd5b82018360208201111561017357600080fd5b8035906020019184600183028401116401000000008311171561019557600080fd5b91908080601f016020809104026020016040519081016040528093929190818152602001838380828437600081840152601f19601f820116905080830192505050505050509192919290803573ffffffffffffffffffffffffffffffffffffffff16906020019092919050505061063d565b005b6102116108d3565b6040518082815260200191505060405180910390f35b61022f6108dd565b604051808215151515815260200191505060405180910390f35b61030c6004803603604081101561025f57600080fd5b81019080803590602001909291908035906020019064010000000081111561028657600080fd5b82018360208201111561029857600080fd5b803590602001918460018302840111640100000000831117156102ba57600080fd5b91908080601f016020809104026020016040519081016040528093929190818152602001838380828437600081840152601f19601f820116905080830192505050505050509192919290505050610979565b005b61033a6004803603602081101561032457600080fd5b8101908080359060200190929190505050610c15565b6040518080602001806020018473ffffffffffffffffffffffffffffffffffffffff1673ffffffffffffffffffffffffffffffffffffffff168152602001838103835286818151815260200191508051906020019080838360005b838110156103b0578082015181840152602081019050610395565b50505050905090810190601f1680156103dd5780820380516001836020036101000a031916815260200191505b50838103825285818151815260200191508051906020019080838360005b838110156104165780820151818401526020810190506103fb565b50505050905090810190601f1680156104435780820380516001836020036101000a031916815260200191505b509550505050505060405180910390f35b6104806004803603602081101561046a57600080fd5b8101908080359060200190929190505050610d8f565b60405180806020018373ffffffffffffffffffffffffffffffffffffffff1673ffffffffffffffffffffffffffffffffffffffff168152602001828103825284818151815260200191508051906020019080838360005b838110156104f25780820151818401526020810190506104d7565b50505050905090810190601f16801561051f5780820380516001836020036101000a031916815260200191505b50935050505060405180910390f35b6105f16004803603604081101561054457600080fd5b81019080803590602001909291908035906020019064010000000081111561056b57600080fd5b82018360208201111561057d57600080fd5b8035906020019184600183028401116401000000008311171561059f57600080fd5b91908080601f016020809104026020016040519081016040528093929190818152602001838380828437600081840152601f19601f820116905080830192505050505050509192919290505050610e6b565b005b6105fb611045565b604051808273ffffffffffffffffffffffffffffffffffffffff1673ffffffffffffffffffffffffffffffffffffffff16815260200191505060405180910390f35b6000809054906101000a900473ffffffffffffffffffffffffffffffffffffffff1673ffffffffffffffffffffffffffffffffffffffff163373ffffffffffffffffffffffffffffffffffffffff16146106e2576040517f08c379a00000000000000000000000000000000000000000000000000000000081526004018080602001828103825260218152602001806111106021913960400191505060405180910390fd5b60405180606001604052808481526020018381526020018273ffffffffffffffffffffffffffffffffffffffff1681525060016000868152602001908152602001600020600082015181600001908051906020019061074292919061106a565b50602082015181600101908051906020019061075f92919061106a565b5060408201518160020160006101000a81548173ffffffffffffffffffffffffffffffffffffffff021916908373ffffffffffffffffffffffffffffffffffffffff1602179055509050506003600081548092919060010191905055507f04779804869ba1b1a5c924f411a8e435b7d49cd7fd2881f31af835f35e70d477848484604051808481526020018060200180602001838103835285818151815260200191508051906020019080838360005b8381101561082a57808201518184015260208101905061080f565b50505050905090810190601f1680156108575780820380516001836020036101000a031916815260200191505b50838103825284818151815260200191508051906020019080838360005b83811015610890578082015181840152602081019050610875565b50505050905090810190601f1680156108bd5780820380516001836020036101000a031916815260200191505b509550505050505060405180910390a150505050565b6000600354905090565b600080600090505b600454811015610970573373ffffffffffffffffffffffffffffffffffffffff166002600083815260200190815260200160002060010160009054906101000a900473ffffffffffffffffffffffffffffffffffffffff1673ffffffffffffffffffffffffffffffffffffffff161415610963576001915050610976565b80806001019150506108e5565b50600090505b90565b600073ffffffffffffffffffffffffffffffffffffffff1660016000848152602001908152602001600020600301826040518082805190602001908083835b602083106109db57805182526020820191506020810190506020830392506109b8565b6001836020036101000a038019825116818451168082178552505050505050905001915050908152602001604051809103902060009054906101000a900473ffffffffffffffffffffffffffffffffffffffff1673ffffffffffffffffffffffffffffffffffffffff1614610ab8576040517f08c379a00000000000000000000000000000000000000000000000000000000081526004018080602001828103825260128152602001807f536c6f74206e6f7420617661696c61626c65000000000000000000000000000081525060200191505060405180910390fd5b817f5d24f873a88744dc232aa1febde09b8c29675a56c8222336bf0a4ba63492b16f826040518080602001828103825283818151815260200191508051906020019080838360005b83811015610b1b578082015181840152602081019050610b00565b50505050905090810190601f168015610b485780820380516001836020036101000a031916815260200191505b509250505060405180910390a23360016000848152602001908152602001600020600301826040518082805190602001908083835b60208310610ba05780518252602082019150602081019050602083039250610b7d565b6001836020036101000a038019825116818451168082178552505050505050905001915050908152602001604051809103902060006101000a81548173ffffffffffffffffffffffffffffffffffffffff021916908373ffffffffffffffffffffffffffffffffffffffff1602179055505050565b6001602052806000526040600020600091509050806000018054600181600116156101000203166002900480601f016020809104026020016040519081016040528092919081815260200182805460018160011615610100020316600290048015610cc15780601f10610c9657610100808354040283529160200191610cc1565b820191906000526020600020905b815481529060010190602001808311610ca457829003601f168201915b505050505090806001018054600181600116156101000203166002900480601f016020809104026020016040519081016040528092919081815260200182805460018160011615610100020316600290048015610d5f5780601f10610d3457610100808354040283529160200191610d5f565b820191906000526020600020905b815481529060010190602001808311610d4257829003601f168201915b5050505050908060020160009054906101000a900473ffffffffffffffffffffffffffffffffffffffff16905083565b6002602052806000526040600020600091509050806000018054600181600116156101000203166002900480601f016020809104026020016040519081016040528092919081815260200182805460018160011615610100020316600290048015610e3b5780601f10610e1057610100808354040283529160200191610e3b565b820191906000526020600020905b815481529060010190602001808311610e1e57829003601f168201915b5050505050908060010160009054906101000a900473ffffffffffffffffffffffffffffffffffffffff16905082565b610e736108dd565b15610ee6576040517f08c379a000000000000000000000000000000000000000000000000000000000815260040180806020018281038252601f8152602001807f416c7265616479207265676973746572656420617320612070617469656e740081525060200191505060405180910390fd5b60405180604001604052808281526020013373ffffffffffffffffffffffffffffffffffffffff16815250600260008481526020019081526020016000206000820151816000019080519060200190610f4092919061106a565b5060208201518160010160006101000a81548173ffffffffffffffffffffffffffffffffffffffff021916908373ffffffffffffffffffffffffffffffffffffffff1602179055509050506004600081548092919060010191905055507f620c8526ade4adfacde38a9c1a1f3d245c3332643fe3bd43ed629a82864db76982826040518083815260200180602001828103825283818151815260200191508051906020019080838360005b83811015611006578082015181840152602081019050610feb565b50505050905090810190601f1680156110335780820380516001836020036101000a031916815260200191505b50935050505060405180910390a15050565b6000809054906101000a900473ffffffffffffffffffffffffffffffffffffffff1681565b828054600181600116156101000203166002900490600052602060002090601f016020900481019282601f106110ab57805160ff19168380011785556110d9565b828001600101855582156110d9579182015b828111156110d85782518255916020019190600101906110bd565b5b5090506110e691906110ea565b5090565b61110c91905b808211156111085760008160009055506001016110f0565b5090565b9056fe4f6e6c792061646d696e2063616e2063616c6c20746869732066756e6374696f6ea265627a7a72315820469eb3c5e8a64d1c2af9b2ed0e6a02fe836ef217c1fca9357ee75e57c46cc29464736f6c63430005100032",
  "source": "// SPDX-License-Identifier: MIT\r\npragma solidity ^0.5.0;\r\n\r\ncontract DoctorAppointment {\r\n    address public admin; // Address of the admin\r\n\r\n    // Structure to represent a doctor\r\n    struct Doctor {\r\n        string name;\r\n        string specialty;\r\n        address walletAddress; // Ethereum address of the doctor\r\n        mapping(string => address) availability; // Mapping for available slots\r\n    }\r\n\r\n    // Structure to represent a patient\r\n    struct Patient {\r\n        string name;\r\n        address walletAddress; // Ethereum address of the patient\r\n    }\r\n\r\n    // Array to store doctors\r\n    mapping(uint => Doctor) public doctors;\r\n    mapping(uint => Patient) public patients;\r\n\r\n    uint doctorCount;\r\n    uint patientCount;\r\n    // Event for appointment booking\r\n    event AppointmentBooked(uint indexed doctorId, string timestamp);\r\n    event DoctorRegistered(uint id, string name, string speciality);\r\n    event PatientRergistered(uint id, string name);\r\n\r\n    // Modifier to restrict access to the admin\r\n    modifier onlyAdmin() {\r\n        require(msg.sender == admin, \"Only admin can call this function\");\r\n        _;\r\n    }\r\n\r\n    // Constructor to set the admin\r\n    constructor() public{\r\n        admin = msg.sender;\r\n    }\r\n\r\n    // Function to register a new doctor (only admin)\r\n    function registerDoctor(uint id, string memory _name, string memory _specialty, address account) public onlyAdmin {\r\n        // Add the doctor to the mapping of doctors\r\n        doctors[id] = Doctor(_name, _specialty, account);\r\n        doctorCount++;\r\n        emit DoctorRegistered(id, _name, _specialty);\r\n    }\r\n\r\n    // Function to register a new patient\r\n    function registerPatient(uint id, string memory _name) public {\r\n        // Ensure the sender is not already registered as a patient\r\n        require(!isPatient(), \"Already registered as a patient\");\r\n        patients[id] = Patient(_name, msg.sender);\r\n        patientCount++;\r\n        emit PatientRergistered(id , _name);\r\n    }\r\n\r\n    // Function to check if an address is registered as a patient\r\n    function isPatient() public view returns (bool) {\r\n        for (uint i = 0; i < patientCount; i++) {\r\n            if (patients[i].walletAddress == msg.sender) {\r\n                return true;\r\n            }\r\n        }\r\n        return false;\r\n    }\r\n\r\n    // // Function for doctors to set their availability\r\n    // function setAvailability(uint _doctorId, uint _slot, bool _available) public {\r\n    //     // Ensure the doctor exists\r\n    //     require(_doctorId < doctors.length, \"Doctor does not exist\");\r\n\r\n    //     // Update the availability for the specified slot\r\n    //     doctors[_doctorId].availability[_slot] = _available;\r\n    // }\r\n\r\n    // Function for patients to book an appointment\r\n    function bookAppointment(uint docId, string memory _timestamp) public {\r\n        // Ensure the doctor exists - line always gives Metamask a problem\r\n        // require(doctors[docId].walletAddress != address(0), \"No doctor exists at the provided wallet address\");\r\n        \r\n        // Ensure the slot is available\r\n        require(doctors[docId].availability[_timestamp] == address(0), \"Slot not available\");\r\n\r\n        // Emit an event indicating the booking\r\n        emit AppointmentBooked(docId, _timestamp);\r\n\r\n        // Mark the slot as unavailable after booking\r\n        doctors[docId].availability[_timestamp] = msg.sender;\r\n    }\r\n\r\n    // List all registered Doctors ----------------------\r\n    // Function to get the total number of doctors\r\n    function getDoctorsCount() public view returns (uint) {\r\n        return doctorCount;\r\n    }\r\n}\r\n",
  "sourcePath": "E:\\BlockChainProject\\contracts\\DoctorAppointment.sol",
  "compiler": {
    "name": "solc",
    "version": "0.5.16+commit.9c3226ce.Emscripten.clang"
  },
  "schemaVersion": "3.4.16",
  "updatedAt": "2024-05-07T20:01:30.301Z",
  "networkType": "ethereum",
  "devdoc": {
    "methods": {}
  },
  "userdoc": {
    "methods": {}
  }
}