{
  "contractName": "DoctorAppointment",
  "abi": [
    {
      "inputs": [],
      "payable": false,
      "stateMutability": "nonpayable",
      "type": "constructor"
    },
    {
      "anonymous": false,
      "inputs": [
        {
          "indexed": true,
          "internalType": "uint256",
          "name": "doctorId",
          "type": "uint256"
        },
        {
          "indexed": false,
          "internalType": "string",
          "name": "timestamp",
          "type": "string"
        }
      ],
      "name": "AppointmentBooked",
      "type": "event"
    },
    {
      "anonymous": false,
      "inputs": [
        {
          "indexed": false,
          "internalType": "uint256",
          "name": "id",
          "type": "uint256"
        },
        {
          "indexed": false,
          "internalType": "string",
          "name": "name",
          "type": "string"
        },
        {
          "indexed": false,
          "internalType": "string",
          "name": "speciality",
          "type": "string"
        }
      ],
      "name": "DoctorRegistered",
      "type": "event"
    },
    {
      "anonymous": false,
      "inputs": [
        {
          "indexed": false,
          "internalType": "uint256",
          "name": "id",
          "type": "uint256"
        },
        {
          "indexed": false,
          "internalType": "string",
          "name": "name",
          "type": "string"
        }
      ],
      "name": "PatientRergistered",
      "type": "event"
    },
    {
      "constant": true,
      "inputs": [],
      "name": "admin",
      "outputs": [
        {
          "internalType": "address",
          "name": "",
          "type": "address"
        }
      ],
      "payable": false,
      "stateMutability": "view",
      "type": "function"
    },
    {
      "constant": true,
      "inputs": [
        {
          "internalType": "uint256",
          "name": "",
          "type": "uint256"
        }
      ],
      "name": "doctors",
      "outputs": [
        {
          "internalType": "string",
          "name": "name",
          "type": "string"
        },
        {
          "internalType": "string",
          "name": "specialty",
          "type": "string"
        },
        {
          "internalType": "address",
          "name": "walletAddress",
          "type": "address"
        }
      ],
      "payable": false,
      "stateMutability": "view",
      "type": "function"
    },
    {
      "constant": true,
      "inputs": [
        {
          "internalType": "uint256",
          "name": "",
          "type": "uint256"
        }
      ],
      "name": "patients",
      "outputs": [
        {
          "internalType": "string",
          "name": "name",
          "type": "string"
        },
        {
          "internalType": "address",
          "name": "walletAddress",
          "type": "address"
        }
      ],
      "payable": false,
      "stateMutability": "view",
      "type": "function"
    },
    {
      "constant": false,
      "inputs": [
        {
          "internalType": "uint256",
          "name": "id",
          "type": "uint256"
        },
        {
          "internalType": "string",
          "name": "_name",
          "type": "string"
        },
        {
          "internalType": "string",
          "name": "_specialty",
          "type": "string"
        },
        {
          "internalType": "address",
          "name": "account",
          "type": "address"
        }
      ],
      "name": "registerDoctor",
      "outputs": [],
      "payable": false,
      "stateMutability": "nonpayable",
      "type": "function"
    },
    {
      "constant": false,
      "inputs": [
        {
          "internalType": "uint256",
          "name": "id",
          "type": "uint256"
        },
        {
          "internalType": "string",
          "name": "_name",
          "type": "string"
        }
      ],
      "name": "registerPatient",
      "outputs": [],
      "payable": false,
      "stateMutability": "nonpayable",
      "type": "function"
    },
    {
      "constant": true,
      "inputs": [
        {
          "internalType": "address",
          "name": "current",
          "type": "address"
        }
      ],
      "name": "isPatient",
      "outputs": [
        {
          "internalType": "bool",
          "name": "",
          "type": "bool"
        }
      ],
      "payable": false,
      "stateMutability": "view",
      "type": "function"
    },
    {
      "constant": false,
      "inputs": [
        {
          "internalType": "uint256",
          "name": "docId",
          "type": "uint256"
        },
        {
          "internalType": "string",
          "name": "_timestamp",
          "type": "string"
        }
      ],
      "name": "bookAppointment",
      "outputs": [],
      "payable": false,
      "stateMutability": "nonpayable",
      "type": "function"
    },
    {
      "constant": true,
      "inputs": [],
      "name": "getDoctorsCount",
      "outputs": [
        {
          "internalType": "uint256",
          "name": "",
          "type": "uint256"
        }
      ],
      "payable": false,
      "stateMutability": "view",
      "type": "function"
    }
  ],
  "bytecode": "0x608060405234801561001057600080fd5b50336000806101000a81548173ffffffffffffffffffffffffffffffffffffffff021916908373ffffffffffffffffffffffffffffffffffffffff1602179055506111a2806100606000396000f3fe608060405234801561001057600080fd5b50600436106100885760003560e01c80638f9c79ed1161005b5780638f9c79ed1461043257806393119a831461048e5780639f6aaaf914610568578063f851a4401461062d57610088565b80631c3bd0e91461008d57806331357af2146102095780636e4abaae146102275780636efb1b84146102ec575b600080fd5b610207600480360360808110156100a357600080fd5b8101908080359060200190929190803590602001906401000000008111156100ca57600080fd5b8201836020820111156100dc57600080fd5b803590602001918460018302840111640100000000831117156100fe57600080fd5b91908080601f016020809104026020016040519081016040528093929190818152602001838380828437600081840152601f19601f8201169050808301925050505050505091929192908035906020019064010000000081111561016157600080fd5b82018360208201111561017357600080fd5b8035906020019184600183028401116401000000008311171561019557600080fd5b91908080601f016020809104026020016040519081016040528093929190818152602001838380828437600081840152601f19601f820116905080830192505050505050509192919290803573ffffffffffffffffffffffffffffffffffffffff169060200190929190505050610677565b005b61021161090d565b6040518082815260200191505060405180910390f35b6102ea6004803603604081101561023d57600080fd5b81019080803590602001909291908035906020019064010000000081111561026457600080fd5b82018360208201111561027657600080fd5b8035906020019184600183028401116401000000008311171561029857600080fd5b91908080601f016020809104026020016040519081016040528093929190818152602001838380828437600081840152601f19601f820116905080830192505050505050509192919290505050610917565b005b6103186004803603602081101561030257600080fd5b8101908080359060200190929190505050610bb3565b6040518080602001806020018473ffffffffffffffffffffffffffffffffffffffff1673ffffffffffffffffffffffffffffffffffffffff168152602001838103835286818151815260200191508051906020019080838360005b8381101561038e578082015181840152602081019050610373565b50505050905090810190601f1680156103bb5780820380516001836020036101000a031916815260200191505b50838103825285818151815260200191508051906020019080838360005b838110156103f45780820151818401526020810190506103d9565b50505050905090810190601f1680156104215780820380516001836020036101000a031916815260200191505b509550505050505060405180910390f35b6104746004803603602081101561044857600080fd5b81019080803573ffffffffffffffffffffffffffffffffffffffff169060200190929190505050610d2d565b604051808215151515815260200191505060405180910390f35b6104ba600480360360208110156104a457600080fd5b8101908080359060200190929190505050610dcb565b60405180806020018373ffffffffffffffffffffffffffffffffffffffff1673ffffffffffffffffffffffffffffffffffffffff168152602001828103825284818151815260200191508051906020019080838360005b8381101561052c578082015181840152602081019050610511565b50505050905090810190601f1680156105595780820380516001836020036101000a031916815260200191505b50935050505060405180910390f35b61062b6004803603604081101561057e57600080fd5b8101908080359060200190929190803590602001906401000000008111156105a557600080fd5b8201836020820111156105b757600080fd5b803590602001918460018302840111640100000000831117156105d957600080fd5b91908080601f016020809104026020016040519081016040528093929190818152602001838380828437600081840152601f19601f820116905080830192505050505050509192919290505050610ea7565b005b610635611082565b604051808273ffffffffffffffffffffffffffffffffffffffff1673ffffffffffffffffffffffffffffffffffffffff16815260200191505060405180910390f35b6000809054906101000a900473ffffffffffffffffffffffffffffffffffffffff1673ffffffffffffffffffffffffffffffffffffffff163373ffffffffffffffffffffffffffffffffffffffff161461071c576040517f08c379a000000000000000000000000000000000000000000000000000000000815260040180806020018281038252602181526020018061114d6021913960400191505060405180910390fd5b60405180606001604052808481526020018381526020018273ffffffffffffffffffffffffffffffffffffffff1681525060016000868152602001908152602001600020600082015181600001908051906020019061077c9291906110a7565b5060208201518160010190805190602001906107999291906110a7565b5060408201518160020160006101000a81548173ffffffffffffffffffffffffffffffffffffffff021916908373ffffffffffffffffffffffffffffffffffffffff1602179055509050506003600081548092919060010191905055507f04779804869ba1b1a5c924f411a8e435b7d49cd7fd2881f31af835f35e70d477848484604051808481526020018060200180602001838103835285818151815260200191508051906020019080838360005b83811015610864578082015181840152602081019050610849565b50505050905090810190601f1680156108915780820380516001836020036101000a031916815260200191505b50838103825284818151815260200191508051906020019080838360005b838110156108ca5780820151818401526020810190506108af565b50505050905090810190601f1680156108f75780820380516001836020036101000a031916815260200191505b509550505050505060405180910390a150505050565b6000600354905090565b600073ffffffffffffffffffffffffffffffffffffffff1660016000848152602001908152602001600020600301826040518082805190602001908083835b602083106109795780518252602082019150602081019050602083039250610956565b6001836020036101000a038019825116818451168082178552505050505050905001915050908152602001604051809103902060009054906101000a900473ffffffffffffffffffffffffffffffffffffffff1673ffffffffffffffffffffffffffffffffffffffff1614610a56576040517f08c379a00000000000000000000000000000000000000000000000000000000081526004018080602001828103825260128152602001807f536c6f74206e6f7420617661696c61626c65000000000000000000000000000081525060200191505060405180910390fd5b817f5d24f873a88744dc232aa1febde09b8c29675a56c8222336bf0a4ba63492b16f826040518080602001828103825283818151815260200191508051906020019080838360005b83811015610ab9578082015181840152602081019050610a9e565b50505050905090810190601f168015610ae65780820380516001836020036101000a031916815260200191505b509250505060405180910390a23360016000848152602001908152602001600020600301826040518082805190602001908083835b60208310610b3e5780518252602082019150602081019050602083039250610b1b565b6001836020036101000a038019825116818451168082178552505050505050905001915050908152602001604051809103902060006101000a81548173ffffffffffffffffffffffffffffffffffffffff021916908373ffffffffffffffffffffffffffffffffffffffff1602179055505050565b6001602052806000526040600020600091509050806000018054600181600116156101000203166002900480601f016020809104026020016040519081016040528092919081815260200182805460018160011615610100020316600290048015610c5f5780601f10610c3457610100808354040283529160200191610c5f565b820191906000526020600020905b815481529060010190602001808311610c4257829003601f168201915b505050505090806001018054600181600116156101000203166002900480601f016020809104026020016040519081016040528092919081815260200182805460018160011615610100020316600290048015610cfd5780601f10610cd257610100808354040283529160200191610cfd565b820191906000526020600020905b815481529060010190602001808311610ce057829003601f168201915b5050505050908060020160009054906101000a900473ffffffffffffffffffffffffffffffffffffffff16905083565b600080600090505b600454811015610dc0578273ffffffffffffffffffffffffffffffffffffffff166002600083815260200190815260200160002060010160009054906101000a900473ffffffffffffffffffffffffffffffffffffffff1673ffffffffffffffffffffffffffffffffffffffff161415610db3576001915050610dc6565b8080600101915050610d35565b50600090505b919050565b6002602052806000526040600020600091509050806000018054600181600116156101000203166002900480601f016020809104026020016040519081016040528092919081815260200182805460018160011615610100020316600290048015610e775780601f10610e4c57610100808354040283529160200191610e77565b820191906000526020600020905b815481529060010190602001808311610e5a57829003601f168201915b5050505050908060010160009054906101000a900473ffffffffffffffffffffffffffffffffffffffff16905082565b610eb033610d2d565b15610f23576040517f08c379a000000000000000000000000000000000000000000000000000000000815260040180806020018281038252601f8152602001807f416c7265616479207265676973746572656420617320612070617469656e740081525060200191505060405180910390fd5b60405180604001604052808281526020013373ffffffffffffffffffffffffffffffffffffffff16815250600260008481526020019081526020016000206000820151816000019080519060200190610f7d9291906110a7565b5060208201518160010160006101000a81548173ffffffffffffffffffffffffffffffffffffffff021916908373ffffffffffffffffffffffffffffffffffffffff1602179055509050506004600081548092919060010191905055507f620c8526ade4adfacde38a9c1a1f3d245c3332643fe3bd43ed629a82864db76982826040518083815260200180602001828103825283818151815260200191508051906020019080838360005b83811015611043578082015181840152602081019050611028565b50505050905090810190601f1680156110705780820380516001836020036101000a031916815260200191505b50935050505060405180910390a15050565b6000809054906101000a900473ffffffffffffffffffffffffffffffffffffffff1681565b828054600181600116156101000203166002900490600052602060002090601f016020900481019282601f106110e857805160ff1916838001178555611116565b82800160010185558215611116579182015b828111156111155782518255916020019190600101906110fa565b5b5090506111239190611127565b5090565b61114991905b8082111561114557600081600090555060010161112d565b5090565b9056fe4f6e6c792061646d696e2063616e2063616c6c20746869732066756e6374696f6ea265627a7a723158209f0b4f32d09ac789d3fcfe110b0eea9bc1e191036fb06e1e6e62dea5bb0343fe64736f6c63430005100032",
  "source": "// SPDX-License-Identifier: MIT\r\npragma solidity ^0.5.0;\r\n\r\ncontract DoctorAppointment {\r\n    address public admin; // Address of the admin\r\n\r\n    // Structure to represent a doctor\r\n    struct Doctor {\r\n        string name;\r\n        string specialty;\r\n        address walletAddress; // Ethereum address of the doctor\r\n        mapping(string => address) availability; // Mapping for available slots\r\n    }\r\n\r\n    // Structure to represent a patient\r\n    struct Patient {\r\n        string name;\r\n        address walletAddress; // Ethereum address of the patient\r\n    }\r\n\r\n    // Array to store doctors\r\n    mapping(uint => Doctor) public doctors;\r\n    mapping(uint => Patient) public patients;\r\n\r\n    uint doctorCount;\r\n    uint patientCount;\r\n    // Event for appointment booking\r\n    event AppointmentBooked(uint indexed doctorId, string timestamp);\r\n    event DoctorRegistered(uint id, string name, string speciality);\r\n    event PatientRergistered(uint id, string name);\r\n\r\n    // Modifier to restrict access to the admin\r\n    modifier onlyAdmin() {\r\n        require(msg.sender == admin, \"Only admin can call this function\");\r\n        _;\r\n    }\r\n\r\n    // Constructor to set the admin\r\n    constructor() public{\r\n        admin = msg.sender;\r\n    }\r\n\r\n    // Function to register a new doctor (only admin)\r\n    function registerDoctor(uint id, string memory _name, string memory _specialty, address account) public onlyAdmin {\r\n        // Add the doctor to the mapping of doctors\r\n        doctors[id] = Doctor(_name, _specialty, account);\r\n        doctorCount++;\r\n        emit DoctorRegistered(id, _name, _specialty);\r\n    }\r\n\r\n    // Function to register a new patient\r\n    function registerPatient(uint id, string memory _name) public {\r\n        // Ensure the sender is not already registered as a patient\r\n        require(!isPatient(msg.sender), \"Already registered as a patient\");\r\n        patients[id] = Patient(_name, msg.sender);\r\n        patientCount++;\r\n        emit PatientRergistered(id , _name);\r\n    }\r\n\r\n    // Function to check if an address is registered as a patient\r\n    function isPatient(address current) public view returns (bool) {\r\n        for (uint i = 0; i < patientCount; i++) {\r\n            if (patients[i].walletAddress == current) {\r\n                return true;\r\n            }\r\n        }\r\n        return false;\r\n    }\r\n\r\n    // // Function for doctors to set their availability\r\n    // function setAvailability(uint _doctorId, uint _slot, bool _available) public {\r\n    //     // Ensure the doctor exists\r\n    //     require(_doctorId < doctors.length, \"Doctor does not exist\");\r\n\r\n    //     // Update the availability for the specified slot\r\n    //     doctors[_doctorId].availability[_slot] = _available;\r\n    // }\r\n\r\n    // Function for patients to book an appointment\r\n    function bookAppointment(uint docId, string memory _timestamp) public {\r\n        // Ensure the doctor exists - line always gives Metamask a problem\r\n        // require(doctors[docId].walletAddress != address(0), \"No doctor exists at the provided wallet address\");\r\n        \r\n        // Ensure the slot is available\r\n        require(doctors[docId].availability[_timestamp] == address(0), \"Slot not available\");\r\n\r\n        // Emit an event indicating the booking\r\n        emit AppointmentBooked(docId, _timestamp);\r\n\r\n        // Mark the slot as unavailable after booking\r\n        doctors[docId].availability[_timestamp] = msg.sender;\r\n    }\r\n\r\n    // List all registered Doctors ----------------------\r\n    // Function to get the total number of doctors\r\n    function getDoctorsCount() public view returns (uint) {\r\n        return doctorCount;\r\n    }\r\n}\r\n",
  "sourcePath": "E:\\BlockChainProject\\contracts\\DoctorAppointment.sol",
  "compiler": {
    "name": "solc",
    "version": "0.5.16+commit.9c3226ce.Emscripten.clang"
  },
  "schemaVersion": "3.4.16",
  "updatedAt": "2024-05-07T21:37:28.618Z",
  "networkType": "ethereum",
  "devdoc": {
    "methods": {}
  },
  "userdoc": {
    "methods": {}
  }
}