{
  "contractName": "DoctorAppointment",
  "abi": [
    {
      "inputs": [],
      "payable": false,
      "stateMutability": "nonpayable",
      "type": "constructor"
    },
    {
      "anonymous": false,
      "inputs": [
        {
          "indexed": true,
          "internalType": "uint256",
          "name": "doctorId",
          "type": "uint256"
        },
        {
          "indexed": true,
          "internalType": "uint256",
          "name": "patientId",
          "type": "uint256"
        },
        {
          "indexed": false,
          "internalType": "uint256",
          "name": "slot",
          "type": "uint256"
        }
      ],
      "name": "AppointmentBooked",
      "type": "event"
    },
    {
      "anonymous": false,
      "inputs": [
        {
          "indexed": false,
          "internalType": "uint256",
          "name": "id",
          "type": "uint256"
        },
        {
          "indexed": false,
          "internalType": "string",
          "name": "name",
          "type": "string"
        },
        {
          "indexed": false,
          "internalType": "string",
          "name": "speciality",
          "type": "string"
        }
      ],
      "name": "DoctorRegistered",
      "type": "event"
    },
    {
      "constant": true,
      "inputs": [],
      "name": "admin",
      "outputs": [
        {
          "internalType": "address",
          "name": "",
          "type": "address"
        }
      ],
      "payable": false,
      "stateMutability": "view",
      "type": "function"
    },
    {
      "constant": true,
      "inputs": [
        {
          "internalType": "uint256",
          "name": "",
          "type": "uint256"
        }
      ],
      "name": "doctors",
      "outputs": [
        {
          "internalType": "uint256",
          "name": "id",
          "type": "uint256"
        },
        {
          "internalType": "string",
          "name": "name",
          "type": "string"
        },
        {
          "internalType": "string",
          "name": "specialty",
          "type": "string"
        },
        {
          "internalType": "address",
          "name": "walletAddress",
          "type": "address"
        }
      ],
      "payable": false,
      "stateMutability": "view",
      "type": "function"
    },
    {
      "constant": true,
      "inputs": [
        {
          "internalType": "uint256",
          "name": "",
          "type": "uint256"
        }
      ],
      "name": "patients",
      "outputs": [
        {
          "internalType": "uint256",
          "name": "id",
          "type": "uint256"
        },
        {
          "internalType": "string",
          "name": "name",
          "type": "string"
        },
        {
          "internalType": "address",
          "name": "walletAddress",
          "type": "address"
        }
      ],
      "payable": false,
      "stateMutability": "view",
      "type": "function"
    },
    {
      "constant": false,
      "inputs": [
        {
          "internalType": "string",
          "name": "_name",
          "type": "string"
        },
        {
          "internalType": "string",
          "name": "_specialty",
          "type": "string"
        }
      ],
      "name": "registerDoctor",
      "outputs": [],
      "payable": false,
      "stateMutability": "nonpayable",
      "type": "function"
    },
    {
      "constant": false,
      "inputs": [
        {
          "internalType": "string",
          "name": "_name",
          "type": "string"
        }
      ],
      "name": "registerPatient",
      "outputs": [],
      "payable": false,
      "stateMutability": "nonpayable",
      "type": "function"
    },
    {
      "constant": true,
      "inputs": [
        {
          "internalType": "address",
          "name": "_walletAddress",
          "type": "address"
        }
      ],
      "name": "isPatient",
      "outputs": [
        {
          "internalType": "bool",
          "name": "",
          "type": "bool"
        }
      ],
      "payable": false,
      "stateMutability": "view",
      "type": "function"
    },
    {
      "constant": false,
      "inputs": [
        {
          "internalType": "uint256",
          "name": "_doctorId",
          "type": "uint256"
        },
        {
          "internalType": "uint256",
          "name": "_slot",
          "type": "uint256"
        },
        {
          "internalType": "bool",
          "name": "_available",
          "type": "bool"
        }
      ],
      "name": "setAvailability",
      "outputs": [],
      "payable": false,
      "stateMutability": "nonpayable",
      "type": "function"
    },
    {
      "constant": false,
      "inputs": [
        {
          "internalType": "uint256",
          "name": "_doctorId",
          "type": "uint256"
        },
        {
          "internalType": "uint256",
          "name": "_slot",
          "type": "uint256"
        }
      ],
      "name": "bookAppointment",
      "outputs": [],
      "payable": false,
      "stateMutability": "nonpayable",
      "type": "function"
    },
    {
      "constant": true,
      "inputs": [],
      "name": "getDoctorsCount",
      "outputs": [
        {
          "internalType": "uint256",
          "name": "",
          "type": "uint256"
        }
      ],
      "payable": false,
      "stateMutability": "view",
      "type": "function"
    },
    {
      "constant": true,
      "inputs": [
        {
          "internalType": "uint256",
          "name": "_id",
          "type": "uint256"
        }
      ],
      "name": "getDoctor",
      "outputs": [
        {
          "internalType": "uint256",
          "name": "",
          "type": "uint256"
        },
        {
          "internalType": "string",
          "name": "",
          "type": "string"
        },
        {
          "internalType": "string",
          "name": "",
          "type": "string"
        },
        {
          "internalType": "address",
          "name": "",
          "type": "address"
        }
      ],
      "payable": false,
      "stateMutability": "view",
      "type": "function"
    }
  ],
  "bytecode": "0x608060405234801561001057600080fd5b50336000806101000a81548173ffffffffffffffffffffffffffffffffffffffff021916908373ffffffffffffffffffffffffffffffffffffffff160217905550611439806100606000396000f3fe608060405234801561001057600080fd5b506004361061009e5760003560e01c8063833b46bb11610066578063833b46bb146103d7578063869c9eaf146105295780638f9c79ed146105e457806393119a8314610640578063f851a440146107215761009e565b806331357af2146100a35780634d8388ff146100c157806369b0a72d146101055780636efb1b841461025257806379d300291461039f575b600080fd5b6100ab61076b565b6040518082815260200191505060405180910390f35b610103600480360360608110156100d757600080fd5b810190808035906020019092919080359060200190929190803515159060200190929190505050610778565b005b6101316004803603602081101561011b57600080fd5b810190808035906020019092919050505061083e565b6040518085815260200180602001806020018473ffffffffffffffffffffffffffffffffffffffff1673ffffffffffffffffffffffffffffffffffffffff168152602001838103835286818151815260200191508051906020019080838360005b838110156101ad578082015181840152602081019050610192565b50505050905090810190601f1680156101da5780820380516001836020036101000a031916815260200191505b50838103825285818151815260200191508051906020019080838360005b838110156102135780820151818401526020810190506101f8565b50505050905090810190601f1680156102405780820380516001836020036101000a031916815260200191505b50965050505050505060405180910390f35b61027e6004803603602081101561026857600080fd5b8101908080359060200190929190505050610abd565b6040518085815260200180602001806020018473ffffffffffffffffffffffffffffffffffffffff1673ffffffffffffffffffffffffffffffffffffffff168152602001838103835286818151815260200191508051906020019080838360005b838110156102fa5780820151818401526020810190506102df565b50505050905090810190601f1680156103275780820380516001836020036101000a031916815260200191505b50838103825285818151815260200191508051906020019080838360005b83811015610360578082015181840152602081019050610345565b50505050905090810190601f16801561038d5780820380516001836020036101000a031916815260200191505b50965050505050505060405180910390f35b6103d5600480360360408110156103b557600080fd5b810190808035906020019092919080359060200190929190505050610c4a565b005b610527600480360360408110156103ed57600080fd5b810190808035906020019064010000000081111561040a57600080fd5b82018360208201111561041c57600080fd5b8035906020019184600183028401116401000000008311171561043e57600080fd5b91908080601f016020809104026020016040519081016040528093929190818152602001838380828437600081840152601f19601f820116905080830192505050505050509192919290803590602001906401000000008111156104a157600080fd5b8201836020820111156104b357600080fd5b803590602001918460018302840111640100000000831117156104d557600080fd5b91908080601f016020809104026020016040519081016040528093929190818152602001838380828437600081840152601f19601f820116905080830192505050505050509192919290505050610e00565b005b6105e26004803603602081101561053f57600080fd5b810190808035906020019064010000000081111561055c57600080fd5b82018360208201111561056e57600080fd5b8035906020019184600183028401116401000000008311171561059057600080fd5b91908080601f016020809104026020016040519081016040528093929190818152602001838380828437600081840152601f19601f820116905080830192505050505050509192919290505050611011565b005b610626600480360360208110156105fa57600080fd5b81019080803573ffffffffffffffffffffffffffffffffffffffff169060200190929190505050611164565b604051808215151515815260200191505060405180910390f35b61066c6004803603602081101561065657600080fd5b810190808035906020019092919050505061120d565b60405180848152602001806020018373ffffffffffffffffffffffffffffffffffffffff1673ffffffffffffffffffffffffffffffffffffffff168152602001828103825284818151815260200191508051906020019080838360005b838110156106e45780820151818401526020810190506106c9565b50505050905090810190601f1680156107115780820380516001836020036101000a031916815260200191505b5094505050505060405180910390f35b6107296112fc565b604051808273ffffffffffffffffffffffffffffffffffffffff1673ffffffffffffffffffffffffffffffffffffffff16815260200191505060405180910390f35b6000600180549050905090565b60018054905083106107f2576040517f08c379a00000000000000000000000000000000000000000000000000000000081526004018080602001828103825260158152602001807f446f63746f7220646f6573206e6f74206578697374000000000000000000000081525060200191505060405180910390fd5b806001848154811061080057fe5b9060005260206000209060050201600401600084815260200190815260200160002060006101000a81548160ff021916908315150217905550505050565b6000606080600060018054905085106108bf576040517f08c379a00000000000000000000000000000000000000000000000000000000081526004018080602001828103825260158152602001807f446f63746f7220646f6573206e6f74206578697374000000000000000000000081525060200191505060405180910390fd5b6108c7611321565b600186815481106108d457fe5b906000526020600020906005020160405180608001604052908160008201548152602001600182018054600181600116156101000203166002900480601f0160208091040260200160405190810160405280929190818152602001828054600181600116156101000203166002900480156109905780601f1061096557610100808354040283529160200191610990565b820191906000526020600020905b81548152906001019060200180831161097357829003601f168201915b50505050508152602001600282018054600181600116156101000203166002900480601f016020809104026020016040519081016040528092919081815260200182805460018160011615610100020316600290048015610a325780601f10610a0757610100808354040283529160200191610a32565b820191906000526020600020905b815481529060010190602001808311610a1557829003601f168201915b505050505081526020016003820160009054906101000a900473ffffffffffffffffffffffffffffffffffffffff1673ffffffffffffffffffffffffffffffffffffffff1673ffffffffffffffffffffffffffffffffffffffff1681525050905080600001518160200151826040015183606001518292508191509450945094509450509193509193565b60018181548110610aca57fe5b9060005260206000209060050201600091509050806000015490806001018054600181600116156101000203166002900480601f016020809104026020016040519081016040528092919081815260200182805460018160011615610100020316600290048015610b7c5780601f10610b5157610100808354040283529160200191610b7c565b820191906000526020600020905b815481529060010190602001808311610b5f57829003601f168201915b505050505090806002018054600181600116156101000203166002900480601f016020809104026020016040519081016040528092919081815260200182805460018160011615610100020316600290048015610c1a5780601f10610bef57610100808354040283529160200191610c1a565b820191906000526020600020905b815481529060010190602001808311610bfd57829003601f168201915b5050505050908060030160009054906101000a900473ffffffffffffffffffffffffffffffffffffffff16905084565b6001805490508210610cc4576040517f08c379a00000000000000000000000000000000000000000000000000000000081526004018080602001828103825260158152602001807f446f63746f7220646f6573206e6f74206578697374000000000000000000000081525060200191505060405180910390fd5b60018281548110610cd157fe5b9060005260206000209060050201600401600082815260200190815260200160002060009054906101000a900460ff16610d73576040517f08c379a00000000000000000000000000000000000000000000000000000000081526004018080602001828103825260128152602001807f536c6f74206e6f7420617661696c61626c65000000000000000000000000000081525060200191505060405180910390fd5b600160028054905003827fbab5dd534562101ec65ddbf2ffb9d652156a761c94ab7f4362cba2bbc03eee96836040518082815260200191505060405180910390a3600060018381548110610dc357fe5b9060005260206000209060050201600401600083815260200190815260200160002060006101000a81548160ff0219169083151502179055505050565b6001604051806080016040528060018054905081526020018481526020018381526020013373ffffffffffffffffffffffffffffffffffffffff1681525090806001815401808255809150509060018203906000526020600020906005020160009091929091909150600082015181600001556020820151816001019080519060200190610e8f92919061135f565b506040820151816002019080519060200190610eac92919061135f565b5060608201518160030160006101000a81548173ffffffffffffffffffffffffffffffffffffffff021916908373ffffffffffffffffffffffffffffffffffffffff1602179055505050507f04779804869ba1b1a5c924f411a8e435b7d49cd7fd2881f31af835f35e70d4776001805490508383604051808481526020018060200180602001838103835285818151815260200191508051906020019080838360005b83811015610f6a578082015181840152602081019050610f4f565b50505050905090810190601f168015610f975780820380516001836020036101000a031916815260200191505b50838103825284818151815260200191508051906020019080838360005b83811015610fd0578082015181840152602081019050610fb5565b50505050905090810190601f168015610ffd5780820380516001836020036101000a031916815260200191505b509550505050505060405180910390a15050565b61101a33611164565b1561108d576040517f08c379a000000000000000000000000000000000000000000000000000000000815260040180806020018281038252601f8152602001807f416c7265616479207265676973746572656420617320612070617469656e740081525060200191505060405180910390fd5b6002604051806060016040528060028054905081526020018381526020013373ffffffffffffffffffffffffffffffffffffffff168152509080600181540180825580915050906001820390600052602060002090600302016000909192909190915060008201518160000155602082015181600101908051906020019061111692919061135f565b5060408201518160020160006101000a81548173ffffffffffffffffffffffffffffffffffffffff021916908373ffffffffffffffffffffffffffffffffffffffff16021790555050505050565b600080600090505b600280549050811015611202578273ffffffffffffffffffffffffffffffffffffffff166002828154811061119d57fe5b906000526020600020906003020160020160009054906101000a900473ffffffffffffffffffffffffffffffffffffffff1673ffffffffffffffffffffffffffffffffffffffff1614156111f5576001915050611208565b808060010191505061116c565b50600090505b919050565b6002818154811061121a57fe5b9060005260206000209060030201600091509050806000015490806001018054600181600116156101000203166002900480601f0160208091040260200160405190810160405280929190818152602001828054600181600116156101000203166002900480156112cc5780601f106112a1576101008083540402835291602001916112cc565b820191906000526020600020905b8154815290600101906020018083116112af57829003601f168201915b5050505050908060020160009054906101000a900473ffffffffffffffffffffffffffffffffffffffff16905083565b6000809054906101000a900473ffffffffffffffffffffffffffffffffffffffff1681565b6040518060800160405280600081526020016060815260200160608152602001600073ffffffffffffffffffffffffffffffffffffffff1681525090565b828054600181600116156101000203166002900490600052602060002090601f016020900481019282601f106113a057805160ff19168380011785556113ce565b828001600101855582156113ce579182015b828111156113cd5782518255916020019190600101906113b2565b5b5090506113db91906113df565b5090565b61140191905b808211156113fd5760008160009055506001016113e5565b5090565b9056fea265627a7a72315820b3b77a76644ed4938a7e65818268246db6482267e7b709392e5b254b43e36fd164736f6c63430005100032",
  "source": "// SPDX-License-Identifier: MIT\r\npragma solidity ^0.5.0;\r\n\r\ncontract DoctorAppointment {\r\n    address public admin; // Address of the admin\r\n\r\n    // Structure to represent a doctor\r\n    struct Doctor {\r\n        uint id;\r\n        string name;\r\n        string specialty;\r\n        address walletAddress; // Ethereum address of the doctor\r\n        mapping(uint => bool) availability; // Mapping for available slots\r\n    }\r\n\r\n    // Structure to represent a patient\r\n    struct Patient {\r\n        uint id;\r\n        string name;\r\n        address walletAddress; // Ethereum address of the patient\r\n    }\r\n\r\n    // Array to store doctors\r\n    Doctor[] public doctors;\r\n\r\n    // Array to store patients\r\n    Patient[] public patients;\r\n\r\n    // Event for appointment booking\r\n    event AppointmentBooked(uint indexed doctorId, uint indexed patientId, uint slot);\r\n    event DoctorRegistered(uint id, string name, string speciality);\r\n\r\n    // Modifier to restrict access to the admin\r\n    modifier onlyAdmin() {\r\n        require(msg.sender == admin, \"Only admin can call this function\");\r\n        _;\r\n    }\r\n\r\n    // Constructor to set the admin\r\n    constructor() public{\r\n        admin = msg.sender;\r\n    }\r\n\r\n    // Function to register a new doctor (only admin)\r\n    function registerDoctor(string memory _name, string memory _specialty) public {\r\n        // Add the doctor to the array of doctors\r\n        doctors.push(Doctor(doctors.length, _name, _specialty, msg.sender));\r\n        emit DoctorRegistered(doctors.length, _name, _specialty);\r\n    }\r\n\r\n    // Function to register a new patient\r\n    function registerPatient(string memory _name) public {\r\n        // Ensure the sender is not already registered as a patient\r\n        require(!isPatient(msg.sender), \"Already registered as a patient\");\r\n\r\n        // Add the patient to the array of patients\r\n        patients.push(Patient(patients.length, _name, msg.sender));\r\n    }\r\n\r\n    // Function to check if an address is registered as a patient\r\n    function isPatient(address _walletAddress) public view returns (bool) {\r\n        for (uint i = 0; i < patients.length; i++) {\r\n            if (patients[i].walletAddress == _walletAddress) {\r\n                return true;\r\n            }\r\n        }\r\n        return false;\r\n    }\r\n\r\n    // Function for doctors to set their availability\r\n    function setAvailability(uint _doctorId, uint _slot, bool _available) public {\r\n        // Ensure the doctor exists\r\n        require(_doctorId < doctors.length, \"Doctor does not exist\");\r\n\r\n        // Update the availability for the specified slot\r\n        doctors[_doctorId].availability[_slot] = _available;\r\n    }\r\n\r\n    // Function for patients to book an appointment\r\n    function bookAppointment(uint _doctorId, uint _slot) public {\r\n        // Ensure the doctor exists\r\n        require(_doctorId < doctors.length, \"Doctor does not exist\");\r\n\r\n        // Ensure the slot is available\r\n        require(doctors[_doctorId].availability[_slot], \"Slot not available\");\r\n\r\n        // Emit an event indicating the booking\r\n        emit AppointmentBooked(_doctorId, patients.length - 1, _slot);\r\n\r\n        // Mark the slot as unavailable after booking\r\n        doctors[_doctorId].availability[_slot] = false;\r\n    }\r\n\r\n    // List all registered Doctors ----------------------\r\n    // Function to get the total number of doctors\r\n    function getDoctorsCount() public view returns (uint) {\r\n        return doctors.length;\r\n    }\r\n\r\n    // Function to get doctor details by ID\r\n    function getDoctor(uint _id) public view returns (uint, string memory, string memory, address) {\r\n        require(_id < doctors.length, \"Doctor does not exist\");\r\n        Doctor memory doctor = doctors[_id];\r\n        return (doctor.id, doctor.name, doctor.specialty, doctor.walletAddress);\r\n    }\r\n}\r\n",
  "sourcePath": "E:\\BlockChainProject\\contracts\\DoctorAppointment.sol",
  "compiler": {
    "name": "solc",
    "version": "0.5.16+commit.9c3226ce.Emscripten.clang"
  },
  "schemaVersion": "3.4.16",
  "updatedAt": "2024-04-27T11:54:15.463Z",
  "networkType": "ethereum",
  "devdoc": {
    "methods": {}
  },
  "userdoc": {
    "methods": {}
  }
}