{
  "contractName": "DoctorAppointment",
  "abi": [
    {
      "inputs": [],
      "payable": false,
      "stateMutability": "nonpayable",
      "type": "constructor"
    },
    {
      "anonymous": false,
      "inputs": [
        {
          "indexed": true,
          "internalType": "uint256",
          "name": "doctorId",
          "type": "uint256"
        },
        {
          "indexed": true,
          "internalType": "uint256",
          "name": "patientId",
          "type": "uint256"
        },
        {
          "indexed": false,
          "internalType": "string",
          "name": "timestamp",
          "type": "string"
        }
      ],
      "name": "AppointmentBooked",
      "type": "event"
    },
    {
      "anonymous": false,
      "inputs": [
        {
          "indexed": false,
          "internalType": "uint256",
          "name": "id",
          "type": "uint256"
        },
        {
          "indexed": false,
          "internalType": "string",
          "name": "name",
          "type": "string"
        },
        {
          "indexed": false,
          "internalType": "string",
          "name": "speciality",
          "type": "string"
        }
      ],
      "name": "DoctorRegistered",
      "type": "event"
    },
    {
      "anonymous": false,
      "inputs": [
        {
          "indexed": false,
          "internalType": "uint256",
          "name": "id",
          "type": "uint256"
        },
        {
          "indexed": false,
          "internalType": "string",
          "name": "name",
          "type": "string"
        }
      ],
      "name": "PatientRergistered",
      "type": "event"
    },
    {
      "constant": true,
      "inputs": [],
      "name": "admin",
      "outputs": [
        {
          "internalType": "address",
          "name": "",
          "type": "address"
        }
      ],
      "payable": false,
      "stateMutability": "view",
      "type": "function"
    },
    {
      "constant": true,
      "inputs": [
        {
          "internalType": "uint256",
          "name": "",
          "type": "uint256"
        }
      ],
      "name": "doctors",
      "outputs": [
        {
          "internalType": "uint256",
          "name": "id",
          "type": "uint256"
        },
        {
          "internalType": "string",
          "name": "name",
          "type": "string"
        },
        {
          "internalType": "string",
          "name": "specialty",
          "type": "string"
        },
        {
          "internalType": "address",
          "name": "walletAddress",
          "type": "address"
        }
      ],
      "payable": false,
      "stateMutability": "view",
      "type": "function"
    },
    {
      "constant": true,
      "inputs": [
        {
          "internalType": "uint256",
          "name": "",
          "type": "uint256"
        }
      ],
      "name": "patients",
      "outputs": [
        {
          "internalType": "uint256",
          "name": "id",
          "type": "uint256"
        },
        {
          "internalType": "string",
          "name": "name",
          "type": "string"
        },
        {
          "internalType": "address",
          "name": "walletAddress",
          "type": "address"
        }
      ],
      "payable": false,
      "stateMutability": "view",
      "type": "function"
    },
    {
      "constant": false,
      "inputs": [
        {
          "internalType": "string",
          "name": "_name",
          "type": "string"
        },
        {
          "internalType": "string",
          "name": "_specialty",
          "type": "string"
        }
      ],
      "name": "registerDoctor",
      "outputs": [],
      "payable": false,
      "stateMutability": "nonpayable",
      "type": "function"
    },
    {
      "constant": false,
      "inputs": [
        {
          "internalType": "string",
          "name": "_name",
          "type": "string"
        }
      ],
      "name": "registerPatient",
      "outputs": [],
      "payable": false,
      "stateMutability": "nonpayable",
      "type": "function"
    },
    {
      "constant": true,
      "inputs": [
        {
          "internalType": "address",
          "name": "_walletAddress",
          "type": "address"
        }
      ],
      "name": "isPatient",
      "outputs": [
        {
          "internalType": "bool",
          "name": "",
          "type": "bool"
        }
      ],
      "payable": false,
      "stateMutability": "view",
      "type": "function"
    },
    {
      "constant": false,
      "inputs": [
        {
          "internalType": "uint256",
          "name": "_doctorId",
          "type": "uint256"
        },
        {
          "internalType": "string",
          "name": "_timestamp",
          "type": "string"
        }
      ],
      "name": "bookAppointment",
      "outputs": [],
      "payable": false,
      "stateMutability": "nonpayable",
      "type": "function"
    },
    {
      "constant": true,
      "inputs": [],
      "name": "getDoctorsCount",
      "outputs": [
        {
          "internalType": "uint256",
          "name": "",
          "type": "uint256"
        }
      ],
      "payable": false,
      "stateMutability": "view",
      "type": "function"
    },
    {
      "constant": true,
      "inputs": [
        {
          "internalType": "uint256",
          "name": "_id",
          "type": "uint256"
        }
      ],
      "name": "getDoctor",
      "outputs": [
        {
          "internalType": "uint256",
          "name": "",
          "type": "uint256"
        },
        {
          "internalType": "string",
          "name": "",
          "type": "string"
        },
        {
          "internalType": "string",
          "name": "",
          "type": "string"
        },
        {
          "internalType": "address",
          "name": "",
          "type": "address"
        }
      ],
      "payable": false,
      "stateMutability": "view",
      "type": "function"
    }
  ],
  "bytecode": "0x608060405234801561001057600080fd5b50336000806101000a81548173ffffffffffffffffffffffffffffffffffffffff021916908373ffffffffffffffffffffffffffffffffffffffff160217905550611631806100606000396000f3fe608060405234801561001057600080fd5b50600436106100935760003560e01c8063833b46bb11610066578063833b46bb14610415578063869c9eaf146105675780638f9c79ed1461062257806393119a831461067e578063f851a4401461075f57610093565b806331357af21461009857806369b0a72d146100b65780636e4abaae146102035780636efb1b84146102c8575b600080fd5b6100a06107a9565b6040518082815260200191505060405180910390f35b6100e2600480360360208110156100cc57600080fd5b81019080803590602001909291905050506107b6565b6040518085815260200180602001806020018473ffffffffffffffffffffffffffffffffffffffff1673ffffffffffffffffffffffffffffffffffffffff168152602001838103835286818151815260200191508051906020019080838360005b8381101561015e578082015181840152602081019050610143565b50505050905090810190601f16801561018b5780820380516001836020036101000a031916815260200191505b50838103825285818151815260200191508051906020019080838360005b838110156101c45780820151818401526020810190506101a9565b50505050905090810190601f1680156101f15780820380516001836020036101000a031916815260200191505b50965050505050505060405180910390f35b6102c66004803603604081101561021957600080fd5b81019080803590602001909291908035906020019064010000000081111561024057600080fd5b82018360208201111561025257600080fd5b8035906020019184600183028401116401000000008311171561027457600080fd5b91908080601f016020809104026020016040519081016040528093929190818152602001838380828437600081840152601f19601f820116905080830192505050505050509192919290505050610a35565b005b6102f4600480360360208110156102de57600080fd5b8101908080359060200190929190505050610cfc565b6040518085815260200180602001806020018473ffffffffffffffffffffffffffffffffffffffff1673ffffffffffffffffffffffffffffffffffffffff168152602001838103835286818151815260200191508051906020019080838360005b83811015610370578082015181840152602081019050610355565b50505050905090810190601f16801561039d5780820380516001836020036101000a031916815260200191505b50838103825285818151815260200191508051906020019080838360005b838110156103d65780820151818401526020810190506103bb565b50505050905090810190601f1680156104035780820380516001836020036101000a031916815260200191505b50965050505050505060405180910390f35b6105656004803603604081101561042b57600080fd5b810190808035906020019064010000000081111561044857600080fd5b82018360208201111561045a57600080fd5b8035906020019184600183028401116401000000008311171561047c57600080fd5b91908080601f016020809104026020016040519081016040528093929190818152602001838380828437600081840152601f19601f820116905080830192505050505050509192919290803590602001906401000000008111156104df57600080fd5b8201836020820111156104f157600080fd5b8035906020019184600183028401116401000000008311171561051357600080fd5b91908080601f016020809104026020016040519081016040528093929190818152602001838380828437600081840152601f19601f820116905080830192505050505050509192919290505050610e89565b005b6106206004803603602081101561057d57600080fd5b810190808035906020019064010000000081111561059a57600080fd5b8201836020820111156105ac57600080fd5b803590602001918460018302840111640100000000831117156105ce57600080fd5b91908080601f016020809104026020016040519081016040528093929190818152602001838380828437600081840152601f19601f82011690508083019250505050505050919291929050505061113f565b005b6106646004803603602081101561063857600080fd5b81019080803573ffffffffffffffffffffffffffffffffffffffff16906020019092919050505061133b565b604051808215151515815260200191505060405180910390f35b6106aa6004803603602081101561069457600080fd5b81019080803590602001909291905050506113e4565b60405180848152602001806020018373ffffffffffffffffffffffffffffffffffffffff1673ffffffffffffffffffffffffffffffffffffffff168152602001828103825284818151815260200191508051906020019080838360005b83811015610722578082015181840152602081019050610707565b50505050905090810190601f16801561074f5780820380516001836020036101000a031916815260200191505b5094505050505060405180910390f35b6107676114d3565b604051808273ffffffffffffffffffffffffffffffffffffffff1673ffffffffffffffffffffffffffffffffffffffff16815260200191505060405180910390f35b6000600180549050905090565b600060608060006001805490508510610837576040517f08c379a00000000000000000000000000000000000000000000000000000000081526004018080602001828103825260158152602001807f446f63746f7220646f6573206e6f74206578697374000000000000000000000081525060200191505060405180910390fd5b61083f6114f8565b6001868154811061084c57fe5b906000526020600020906005020160405180608001604052908160008201548152602001600182018054600181600116156101000203166002900480601f0160208091040260200160405190810160405280929190818152602001828054600181600116156101000203166002900480156109085780601f106108dd57610100808354040283529160200191610908565b820191906000526020600020905b8154815290600101906020018083116108eb57829003601f168201915b50505050508152602001600282018054600181600116156101000203166002900480601f0160208091040260200160405190810160405280929190818152602001828054600181600116156101000203166002900480156109aa5780601f1061097f576101008083540402835291602001916109aa565b820191906000526020600020905b81548152906001019060200180831161098d57829003601f168201915b505050505081526020016003820160009054906101000a900473ffffffffffffffffffffffffffffffffffffffff1673ffffffffffffffffffffffffffffffffffffffff1673ffffffffffffffffffffffffffffffffffffffff1681525050905080600001518160200151826040015183606001518292508191509450945094509450509193509193565b6001805490508210610aaf576040517f08c379a00000000000000000000000000000000000000000000000000000000081526004018080602001828103825260158152602001807f446f63746f7220646f6573206e6f74206578697374000000000000000000000081525060200191505060405180910390fd5b60018281548110610abc57fe5b9060005260206000209060050201600401816040518082805190602001908083835b60208310610b015780518252602082019150602081019050602083039250610ade565b6001836020036101000a038019825116818451168082178552505050505050905001915050908152602001604051809103902060009054906101000a900460ff16610bb4576040517f08c379a00000000000000000000000000000000000000000000000000000000081526004018080602001828103825260128152602001807f536c6f74206e6f7420617661696c61626c65000000000000000000000000000081525060200191505060405180910390fd5b600160028054905003827fd10c5b062847dcf55cce7016fa8423ef327c31d0a27952d1049d12a6fa42baf2836040518080602001828103825283818151815260200191508051906020019080838360005b83811015610c20578082015181840152602081019050610c05565b50505050905090810190601f168015610c4d5780820380516001836020036101000a031916815260200191505b509250505060405180910390a3600060018381548110610c6957fe5b9060005260206000209060050201600401826040518082805190602001908083835b60208310610cae5780518252602082019150602081019050602083039250610c8b565b6001836020036101000a038019825116818451168082178552505050505050905001915050908152602001604051809103902060006101000a81548160ff0219169083151502179055505050565b60018181548110610d0957fe5b9060005260206000209060050201600091509050806000015490806001018054600181600116156101000203166002900480601f016020809104026020016040519081016040528092919081815260200182805460018160011615610100020316600290048015610dbb5780601f10610d9057610100808354040283529160200191610dbb565b820191906000526020600020905b815481529060010190602001808311610d9e57829003601f168201915b505050505090806002018054600181600116156101000203166002900480601f016020809104026020016040519081016040528092919081815260200182805460018160011615610100020316600290048015610e595780601f10610e2e57610100808354040283529160200191610e59565b820191906000526020600020905b815481529060010190602001808311610e3c57829003601f168201915b5050505050908060030160009054906101000a900473ffffffffffffffffffffffffffffffffffffffff16905084565b6000809054906101000a900473ffffffffffffffffffffffffffffffffffffffff1673ffffffffffffffffffffffffffffffffffffffff163373ffffffffffffffffffffffffffffffffffffffff1614610f2e576040517f08c379a00000000000000000000000000000000000000000000000000000000081526004018080602001828103825260218152602001806115dc6021913960400191505060405180910390fd5b6001604051806080016040528060018054905081526020018481526020018381526020013373ffffffffffffffffffffffffffffffffffffffff1681525090806001815401808255809150509060018203906000526020600020906005020160009091929091909150600082015181600001556020820151816001019080519060200190610fbd929190611536565b506040820151816002019080519060200190610fda929190611536565b5060608201518160030160006101000a81548173ffffffffffffffffffffffffffffffffffffffff021916908373ffffffffffffffffffffffffffffffffffffffff1602179055505050507f04779804869ba1b1a5c924f411a8e435b7d49cd7fd2881f31af835f35e70d4776001805490508383604051808481526020018060200180602001838103835285818151815260200191508051906020019080838360005b8381101561109857808201518184015260208101905061107d565b50505050905090810190601f1680156110c55780820380516001836020036101000a031916815260200191505b50838103825284818151815260200191508051906020019080838360005b838110156110fe5780820151818401526020810190506110e3565b50505050905090810190601f16801561112b5780820380516001836020036101000a031916815260200191505b509550505050505060405180910390a15050565b6111483361133b565b156111bb576040517f08c379a000000000000000000000000000000000000000000000000000000000815260040180806020018281038252601f8152602001807f416c7265616479207265676973746572656420617320612070617469656e740081525060200191505060405180910390fd5b6002604051806060016040528060028054905081526020018381526020013373ffffffffffffffffffffffffffffffffffffffff1681525090806001815401808255809150509060018203906000526020600020906003020160009091929091909150600082015181600001556020820151816001019080519060200190611244929190611536565b5060408201518160020160006101000a81548173ffffffffffffffffffffffffffffffffffffffff021916908373ffffffffffffffffffffffffffffffffffffffff1602179055505050507f620c8526ade4adfacde38a9c1a1f3d245c3332643fe3bd43ed629a82864db769600280549050826040518083815260200180602001828103825283818151815260200191508051906020019080838360005b838110156112fd5780820151818401526020810190506112e2565b50505050905090810190601f16801561132a5780820380516001836020036101000a031916815260200191505b50935050505060405180910390a150565b600080600090505b6002805490508110156113d9578273ffffffffffffffffffffffffffffffffffffffff166002828154811061137457fe5b906000526020600020906003020160020160009054906101000a900473ffffffffffffffffffffffffffffffffffffffff1673ffffffffffffffffffffffffffffffffffffffff1614156113cc5760019150506113df565b8080600101915050611343565b50600090505b919050565b600281815481106113f157fe5b9060005260206000209060030201600091509050806000015490806001018054600181600116156101000203166002900480601f0160208091040260200160405190810160405280929190818152602001828054600181600116156101000203166002900480156114a35780601f10611478576101008083540402835291602001916114a3565b820191906000526020600020905b81548152906001019060200180831161148657829003601f168201915b5050505050908060020160009054906101000a900473ffffffffffffffffffffffffffffffffffffffff16905083565b6000809054906101000a900473ffffffffffffffffffffffffffffffffffffffff1681565b6040518060800160405280600081526020016060815260200160608152602001600073ffffffffffffffffffffffffffffffffffffffff1681525090565b828054600181600116156101000203166002900490600052602060002090601f016020900481019282601f1061157757805160ff19168380011785556115a5565b828001600101855582156115a5579182015b828111156115a4578251825591602001919060010190611589565b5b5090506115b291906115b6565b5090565b6115d891905b808211156115d45760008160009055506001016115bc565b5090565b9056fe4f6e6c792061646d696e2063616e2063616c6c20746869732066756e6374696f6ea265627a7a7231582091c6c48bdec4025c633eb0a0d623588c11ebfffcf87b475efe5d5b1fc32ba10c64736f6c63430005100032",
  "source": "// SPDX-License-Identifier: MIT\r\npragma solidity ^0.5.0;\r\n\r\ncontract DoctorAppointment {\r\n    address public admin; // Address of the admin\r\n\r\n    // Structure to represent a doctor\r\n    struct Doctor {\r\n        uint id;\r\n        string name;\r\n        string specialty;\r\n        address walletAddress; // Ethereum address of the doctor\r\n        mapping(string => bool) availability; // Mapping for available slots\r\n    }\r\n\r\n    // Structure to represent a patient\r\n    struct Patient {\r\n        uint id;\r\n        string name;\r\n        address walletAddress; // Ethereum address of the patient\r\n    }\r\n\r\n    // Array to store doctors\r\n    Doctor[] public doctors;\r\n\r\n    // Array to store patients\r\n    Patient[] public patients;\r\n\r\n    // Event for appointment booking\r\n    event AppointmentBooked(uint indexed doctorId, uint indexed patientId, string timestamp);\r\n    event DoctorRegistered(uint id, string name, string speciality);\r\n    event PatientRergistered(uint id, string name);\r\n\r\n    // Modifier to restrict access to the admin\r\n    modifier onlyAdmin() {\r\n        require(msg.sender == admin, \"Only admin can call this function\");\r\n        _;\r\n    }\r\n\r\n    // Constructor to set the admin\r\n    constructor() public{\r\n        admin = msg.sender;\r\n    }\r\n\r\n    // Function to register a new doctor (only admin)\r\n    function registerDoctor(string memory _name, string memory _specialty) public onlyAdmin {\r\n        // Add the doctor to the array of doctors\r\n        doctors.push(Doctor(doctors.length, _name, _specialty, msg.sender));\r\n        emit DoctorRegistered(doctors.length, _name, _specialty);\r\n    }\r\n\r\n    // Function to register a new patient\r\n    function registerPatient(string memory _name) public {\r\n        // Ensure the sender is not already registered as a patient\r\n        require(!isPatient(msg.sender), \"Already registered as a patient\");\r\n\r\n        // Add the patient to the array of patients\r\n        patients.push(Patient(patients.length, _name, msg.sender));\r\n        emit PatientRergistered(patients.length, _name);\r\n    }\r\n\r\n    // Function to check if an address is registered as a patient\r\n    function isPatient(address _walletAddress) public view returns (bool) {\r\n        for (uint i = 0; i < patients.length; i++) {\r\n            if (patients[i].walletAddress == _walletAddress) {\r\n                return true;\r\n            }\r\n        }\r\n        return false;\r\n    }\r\n\r\n    // // Function for doctors to set their availability\r\n    // function setAvailability(uint _doctorId, uint _slot, bool _available) public {\r\n    //     // Ensure the doctor exists\r\n    //     require(_doctorId < doctors.length, \"Doctor does not exist\");\r\n\r\n    //     // Update the availability for the specified slot\r\n    //     doctors[_doctorId].availability[_slot] = _available;\r\n    // }\r\n\r\n    // Function for patients to book an appointment\r\n    function bookAppointment(uint _doctorId, string memory _timestamp) public {\r\n        // Ensure the doctor exists\r\n        require(_doctorId < doctors.length, \"Doctor does not exist\");\r\n\r\n        // Ensure the slot is available\r\n        require(doctors[_doctorId].availability[_timestamp], \"Slot not available\");\r\n\r\n        // Emit an event indicating the booking\r\n        emit AppointmentBooked(_doctorId, patients.length - 1, _timestamp);\r\n\r\n        // Mark the slot as unavailable after booking\r\n        doctors[_doctorId].availability[_timestamp] = false;\r\n    }\r\n\r\n    // List all registered Doctors ----------------------\r\n    // Function to get the total number of doctors\r\n    function getDoctorsCount() public view returns (uint) {\r\n        return doctors.length;\r\n    }\r\n\r\n    // Function to get doctor details by ID\r\n    function getDoctor(uint _id) public view returns (uint, string memory, string memory, address) {\r\n        require(_id < doctors.length, \"Doctor does not exist\");\r\n        Doctor memory doctor = doctors[_id];\r\n        return (doctor.id, doctor.name, doctor.specialty, doctor.walletAddress);\r\n    }\r\n}\r\n",
  "sourcePath": "E:\\BlockChainProject\\contracts\\DoctorAppointment.sol",
  "compiler": {
    "name": "solc",
    "version": "0.5.16+commit.9c3226ce.Emscripten.clang"
  },
  "schemaVersion": "3.4.16",
  "updatedAt": "2024-05-06T14:50:58.255Z",
  "devdoc": {
    "methods": {}
  },
  "userdoc": {
    "methods": {}
  }
}